:100000000C9434000C9451000C9451000C94510049
:100010000C9451000C9451000C9451000C9451001C
:100020000C9451000C9451000C9451000C9451000C
:100030000C9451000C9451000C9451000C945100FC
:100040000C9460000C9451000C9451000C945100DD
:100050000C9451000C9451000C9451000C945100DC
:100060000C9451000C94510011241FBECFEFD8E026
:10007000DEBFCDBF11E0A0E0B1E0E8E5F1E002C0F5
:1000800005900D92A030B107D9F721E0A0E0B1E0D2
:1000900001C01D92A930B207E1F70E9453000C94F1
:1000A000AA000C94000080E887B983B18072880FA1
:1000B000880F21F098B1982B98B9F7CF4798F5CFD2
:1000C0001F920F920FB60F9211242F933F938F938D
:1000D0009F93AF93BF938091010190910201A091F2
:1000E0000301B09104013091000123E0230F2D376B
:1000F00020F40196A11DB11D05C026E8230F02962C
:10010000A11DB11D20930001809301019093020174
:10011000A0930301B0930401809105019091060121
:10012000A0910701B09108010196A11DB11D809316
:10013000050190930601A0930701B0930801BF91B8
:10014000AF919F918F913F912F910F900FBE0F9084
:080150001F901895F894FFCFF1
:00000001FF
